:1000000000000420B5020000DD020000DF02000055
:10001000E1020000E3020000E50200000000000031
:10002000000000000000000000000000E7020000E7
:10003000E902000000000000EB020000ED020000F9
:1000400009980000DDD7030019980000EF020000B6
:10005000EF020000EF020000B9940000EF02000080
:10006000EF020000EF020000EF020000EF020000CC
:10007000EF02000099990000EF020000EF0200007B
:10008000EF0200006D4A0000EF020000EF020000E6
:10009000EF020000EF020000EF020000EF0200009C
:1000A000EF020000EF020000359D0000EF020000AB
:1000B000EF020000EF02000000000000000000005E
:1000C000EF020000EF020000EF020000EF0200006C
:1000D00099040400EF020000EF020000DDBE000002
:1000E000EF020000EF020000750A040000000000AB
:1000F00000000000EF02000000000000EF0200001E
:1001000000000000000000000000000000000000EF
:1001100000000000000000000000000000000000DF
:1001200000000000000000000000000000000000CF
:1001300000000000000000000000000000000000BF
:1001400000000000000000000000000000000000AF
:10015000000000000000000000000000000000009F
:10016000000000000000000000000000000000008F
:10017000000000000000000000000000000000007F
:10018000000000000000000000000000000000006F
:10019000000000000000000000000000000000005F
:1001A000000000000000000000000000000000004F
:1001B000000000000000000000000000000000003F
:1001C000000000000000000000000000000000002F
:1001D000000000000000000000000000000000001F
:1001E000000000000000000000000000000000000F
:1001F00000000000000000000000000000000000FF
:1002000010B5054C237833B9044B13B10448AFF350
:1002100000800123237010BD700700200000000043
:10022000CCA0040008B5034B1BB103490348AFF34E
:10023000008008BD0000000074070020CCA004006E
:10024000154B002B08BF134B9D46A3F5803A0021A8
:100250008B460F461348144A121A40F0DCFC0F4B31
:10026000002B00D098470E4B002B00D09847002061
:10027000002104000D000D48002802D00C48AFF307
:10028000008040F04DFC200029000CF079F940F08E
:1002900021FC00BF00000800000004200000000056
:1002A00000000000700700207C8A00200000000091
:1002B000000000000649074A074B9B1A03DD043B78
:1002C000C858D050FBDC01F073F9FFF7B9FF00000C
:1002D000C4A304000000002070070020FEE7FEE732
:1002E000FEE7FEE7FEE7FEE7FEE7FEE7FEE7FEE7E6
:1002F0007047000007B5044B0093044A802300F0C8
:1003000032F803B05DF804FB110300008D070020F4
:100310002DE9F84389461446B2B10F4B0F4E032521
:10032000002743F00108224609EB070100200CF0EA
:1003300073FA0744241A48B933782BB14FF47A4042
:10034000C047013D02D13570BDE8F8830123337009
:10035000002CE8D1F8E700BFB03004008C07002083
:1003600070470CF08DBAF0B595B008460D461646AC
:100370001C4608F072F81A9A0D920023082205A96B
:1003800028460A938DF82C300C93CDE9086408F0C8
:100390008DF8079B0293BDF81830ADF80C30BDF80E
:1003A0001A30ADF80E3001238DF811309DF814305D
:1003B00003F00302012A1DD1BDF81440059EC3F3CA
:1003C000C203C4F383148DF81030A20008230EA9D1
:1003D000284608F06BF8C6F3952608AB0093224632
:1003E00002AB0EA9304600F087FF284608F039F826
:1003F00015B0F0BD022AF8D1BDF81640C3F3C20310
:10040000A4098DF810300827082C264628BF082696
:100410003B4632460EA9284608F048F8A41B08AB14
:1004200002AA31460EA8374400F0CAFF002CEBD1D7
:10043000DBE7000008B5FFF794FF0421064800F051
:10044000A3FE002803DA05491B2004F059FC044BE5
:1004500001225A7108BD00BF8CA30400C4300400FF
:100460000000002000230428CB604B6098BF044BA1
:10047000044A98BF53F820308A600B60704700BF71
:100480002833040004330400CB6800225A717047FB
:10049000C368DB6800225A717047CB6801225A7129
:1004A0007047C368DB6801225A717047104A8A603E
:1004B000F0B5104A104C0023121BCB604B600B6050
:1004C00022F00F021D46264693420DD006EB030C88
:1004D000E718DCF80CC09CF804C0BCF1FF0F05D095
:1004E000854202D1BB680B60F0BD01351033EBE7EC
:1004F0003C330400BCA304008CA304002DE9F74F97
:10050000174E184D0093AD1B52F8043C07468A461F
:10051000904625F00F050024B146A54207D1124AA6
:100520000221384603B0BDE8F04F05F001BB09EBEE
:10053000040118468968019341F0A4F806EB040B06
:10054000019B10340028E8D1DDED007A17EE90CA47
:10055000434652465946384603B0BDE8F04F60471F
:100560008CA30400BCA3040074340400014BFFF707
:10057000C5BF00BF890B0000014BFFF7BFBF00BF25
:1005800089040000014BFFF7B9BF00BF9B040000C6
:10059000014BFFF7B3BF00BFC1090000037813F0A0
:1005A000040216D003F00303012B03D0022B09D061
:1005B000012070470A6800880232C0F383100244A9
:1005C0000A60F5E70B684288023303EB92130B6075
:1005D000EEE71046704700002DE9F04F484C87B019
:1005E0000D460646871C0020009204F047F8236859
:1005F0002B60D4E901231344226801339B1A04F2CF
:100600001C4804F5836B04F21449BB4219D3009AC9
:100610000023002A6CD0012262F3010343F004039B
:1006200066F389132168A2680A4003320F44002050
:1006300044F82230276004F031F8012007B0BDE80B
:10064000F08F0121404604F026FC584604F03CFCA3
:100650000DF1180A484604F037FC60684AF8100D9E
:10066000A5682840033004EB80005146FFF796FF51
:1006700002460298002AF4D105EA000304EB830342
:10068000811CDB6803930130054004EB850503F012
:100690000303012B0291ED6823D0022B08D01949E6
:1006A00001924FF4AC7004F02BFB019A154607E061
:1006B000BDF80E309B0903332D0C01EB930302931D
:1006C000484604F004FC08B1029B6360294640469A
:1006D00004F0E1FBD4E901231344226801339B1A9F
:1006E00093E7BDF80C30C3F383132D0C0B44E6E7FE
:1006F000022262F3010343F0040366F39F5391E780
:10070000A809002021310400012907B5034604D0BF
:100710008168D1F85413890707D50022114618467D
:1007200003B05DF804EB06F0FBBB53680193054B87
:1007300000931368044A022105F0FAF903B05DF84A
:1007400004FB00BF70310400663104002DE9F3475B
:100750008368D3F85443C4F34004074634B10022FD
:10076000114602B0BDE8F04706F0DABB144D154E55
:10077000DFF85880DFF85890DFF858A0761B26F095
:100780000F06B44202D102B0BDE8F0872B19DA6837
:100790009B681179FF2906D10B4A0821384605F0DC
:1007A000C7F91034EDE75279002A0CBF42464A4699
:1007B000CDE9002138465246082105F0B9F9F0E7A5
:1007C0008CA30400BCA3040085310400FB6F04006B
:1007D000A46F0400A431040030B50A4B0A4A0B4947
:1007E000D21AD20800239A4201D1052006E031F83E
:1007F00023500468A54202D10360002030BD0133BC
:10080000F1E700BFD0A1040038A30400E0050020F8
:100810008368D3F854339B0703D50022114606F0B2
:100820007FBB024A022105F083B900BFC531040035
:100830008368D3F854339B0703D50022114606F092
:100840006FBB024A022105F073B900BFC531040035
:100850002DE9F84F224B2348FF229A600022C3F86B
:100860001824C3E90022C3F8142483F8202407F0D5
:10087000ADFD804688B91C481C4E1D4DDFF874A0A4
:1008800008F0D8F8AD1BED084446AC4208D100236F
:10089000184919481A469C421BD14046BDE8F88FBA
:1008A0004FF000094F4606EBC40BBC420AD014229D
:1008B00056F83710DBF8000040F0FEFE0028C8BFF5
:1008C00009F101090137BD42EFD12AF82490013422
:1008D000DBE701EB830540F823206A800133DAE788
:1008E000A809002038A30400F8320400D0A10400B5
:1008F00038A30400E00500209406002007B501900D
:1009000031B9019A064B53F8320003B05DF804FB8D
:1009100001A8FFF761FF0028F3D00020F5E700BF32
:10092000D0A10400002310B5CB604B60034B8B605B
:100930000C460121FFF7E2FF206010BD04330400E4
:10094000094B013903EBC000032909D8DFE801F0A6
:100950000A02040604207047007970474079704706
:100960000020704702207047D0A1040030B5124C1F
:1009700000EB400054F821508240072303FA00F0B6
:100980006A4002400D4B6A40C2F3821044F82120B5
:1009900003EB8101C2F3C203834238BF0346C2F3B3
:1009A0004220834202F0070238BF03469A4238BF12
:1009B0001A464A8030BD00BF94060020E0050020A2
:1009C0002DE9F74F06461D469046002A50D0CB68C9
:1009D00028684B4993F80490072240F06DFED0B987
:1009E000B8F1010F07D1474A0221304603B0BDE8F4
:1009F000F04F05F09DB8444F04460A2257F82410E2
:100A0000686840F059FE002873D00134052CF4D1F9
:100A10006B683E4A13E008223D49286840F04CFECE
:100A200058B9B8F1010F04462BD00127394A3A4B87
:100A30009B1A4FEAD30A934645E02B68374A0221B6
:100A4000304603B0BDE8F04F05F072B808EBC503BF
:100A50009B79A3420FD200212846FFF74FFF524651
:100A600003460221304605F063F80135BD42EDD161
:100A700003B0BDE8F08F224629464846FFF776FFCF
:100A8000F3E7244B244FDFF89CA0FF1AFF08002552
:100A90009846EBE7184600210193FFF72FFF0099D6
:100AA000202240F009FE019B014608B1013310E00D
:100AB0000BEBC3029279A24215D32246194648464F
:100AC000FFF754FF01374745D2D255F8273000933E
:100AD00000239A45DED155F82730114A02213046CD
:100AE00005F026F8EEE71846FFF708FF0D4A034623
:100AF000F4E7B8F1020FE4B2C3D0022796E700BFD3
:100B0000D6310400DD310400143304004032040007
:100B1000E4670400D0A1040038A30400F431040009
:100B20002C3204000932040013460A46C168FFF75C
:100B300047BF000013B504460191A3B162B9019A01
:100B40000F4B04EB4404072053F82230A040184018
:100B5000E040C0B202B010BD01A8FFF73DFE002882
:100B6000EDD00020F6E72AB9019A064B03EBC20349
:100B70009879EFE701A8FFF72FFE0028F1D1F3E7FE
:100B800094060020D0A104002DE9F04F274B284AFD
:100B90009B1A4FEAD309CB685B7985B005460E46B0
:100BA0001BB9244A022104F0C3FF234B234A244FDC
:100BB0000821284604F0BCFF224A0821284604F0F8
:100BC000B7FF00244C4502D105B0BDE8F08FF368B3
:100BD00093F8048001231A4621464046FFF7AAFFF6
:100BE00001222146834600234046FFF7A3FF032846
:100BF000034628BF03235FFA83FA8046012120467B
:100C0000FFF77CFE57F82A3001930F4A0F4B57F835
:100C10002B100091D04598BF134602930C4A03460F
:100C20000821284604F084FF0134CBE738A30400F0
:100C3000D0A104005F320400723204007E3204004E
:100C4000143304009C320400964804005D32040012
:100C5000D932040013460A46C168FFF795BF000069
:100C600037B51C4B93F8203404460BB918B900244F
:100C7000204603B030BD40F017FD02AA013042F813
:100C8000080D012301A9144807F0E2FE05460028DB
:100C9000EDD1009A019821463FF099FFDDE900234C
:100CA00013440D4803F8015C009907F015FF20B1CB
:100CB0000A494FF4F27004F023F80099064808F04E
:100CC00005F820B105494FF4F47004F019F8019CBF
:100CD000CEE700BFA8090020F8320400213104004B
:100CE000034BD3E90030C31A58425841704700BF44
:100CF000A80900202DE9F04F85B0FFF7F1FF064667
:100D0000002840F018818D4DC5F81804BFF34F8FAF
:100D10006868AC6804AF47F8100D2040033005EB5D
:100D200080003946FFF73AFC009B18B1D5F818242B
:100D3000002A66D004EA0302991C013305EB820203
:100D4000234005EB8303D268DB68029302F00303C0
:100D5000022B0192009169D1BDF8063078489DF8C8
:100D600004604FEA931ABAF1A00FD14628BF4FF0A2
:100D7000A00969F38F1309F10801ADF8063007F0F7
:100D80003DFBC6F3C2068046002800F0BB8007F09A
:100D900064FB01A900230822404607F071FB00997B
:100DA00024EA01070137BF00B94538D95FFA89F94C
:100DB00097B3FFB2A9EB0709214003315FFA89FB22
:100DC000B946604F05EB810108234A46404607F0CB
:100DD00057FB37B109F108035A463946404607F038
:100DE0004FFB009B0AF1030A03EB9A030093D5F82B
:100DF0001834002B50D1D5F81044DFF85C91072748
:100E00006FE02A689A4204D86A60304605B0BDE8AF
:100E1000F08F04EA030081E74A49BB46D4E721404A
:100E2000033108234A4605EB8101D7E7012B69D13D
:100E3000BDF804604248C6F38311062928BF062185
:100E400061F3891602318900ADF8046007F0D6FA23
:100E5000C6F3C2068046002854D007F0FEFA0023ED
:100E6000082201A9404607F00BFB0027BDF804202B
:100E7000C2F38312BB1C97424FEA8303B7D2009997
:100E80004A1C21400331009205EB810104224046B7
:100E900007F0F6FA0137E9E7404607F0E2FAFFF714
:100EA0001FFF80F00100C6B2AFE7E3685A79B2B124
:100EB0001B79BDF8081003EB430259F8211007FA1B
:100EC00002F3052E03EA010323FA02F308BF032607
:100ED000B34204D3236841461B6820469847E36821
:100EE0001C68002CE1D1404607F0BBFA204603F015
:100EF000C5FBD5F818340BB9009B6B60002003F0DC
:100F0000CDFBCCE7D5F8104474B90F4B5B88012BAF
:100F1000C5D90E4B0E480F49C01AC008000440F056
:100F2000020000F087F8BAE7236820469B689847DC
:100F3000E3681C68E8E7002667E700BFA80900200F
:100F400038A30400B409002000060020D0A104004A
:100F500010A204009C340400940600202DE9F74FF1
:100F60002F4C80460F46914601A9012218469B4608
:100F7000D4F808A0FFF730FB00283DD0019D0026E3
:100F8000A91C5E4506EB010240D10021254803F073
:100F90004CFF80F3100B244B244A4FEA18499B1A4C
:100FA000B9EBD30F04D3224940F27D1003F0A8FE21
:100FB0006B1C03EA0A0304EB830349EA0B42DA6081
:100FC00005EA0A030333012114F8232068F3C5025C
:100FD00004F8232034F8232066F3891224F8232010
:100FE00054F8232067F39F2244F8232061F3010281
:100FF0006FF3820204F8232094F820341BB1FFF72A
:1010000079FE0028FBD103B0BDE8F08F0AEA0202A6
:1010100004EB820259F82630D3600136B1E700BFF5
:10102000A8090020C40D002038A30400D0A10400AA
:101030002131040000231A46FFF790BF13B502AC1C
:10104000012344F8042D2246FFF788FF02B010BDAB
:1010500007B5CDE9002302236A46FFF77FFF03B0FF
:101060005DF804FB1FB5CDE90123069B039301AA9C
:101070000323FFF773FF05B05DF804FB1FB5CDE94F
:101080000023069B0293079B03936A460423FFF702
:1010900065FF05B05DF804FB7FB5CDE90123089B32
:1010A0000393099B04930A9B059301AA0523FFF769
:1010B00055FF07B05DF804FB2DE9F3478046304C3F
:1010C000D01C8A46174601A900228008A568FFF7B0
:1010D00083FA002840D0DDF80490A66809F10200E8
:1010E000019001362840361AB6000330B74204EBAF
:1010F00080003BD83A4651463FF069FD0021214827
:1011000003F093FE80F3100009F101032B4004EB80
:1011100083034FEA184242EA0040D86005EA090317
:10112000033304EB830214F8231068F3C50104F8B9
:10113000231034F823106FF38F1124F823105188F3
:1011400067F38F11518014F82320022161F301020B
:101150006FF3820204F8232094F820341BB1FFF7C8
:10116000C9FD0028FBD102B0BDE8F08732465146E8
:101170003FF02DFDBA1B0AEB060104F10C00BBE7A2
:10118000A8090020C40D00202DE9F8431F4B884614
:10119000D3F81014054600240A469AB9E9680C7180
:1011A000D3F81014A1B9C3F81054EB681A60184FA3
:1011B000184EF61BF6084FF00009B14511D1204634
:1011C000BDE8F883D2681079A04218D01268E4E72D
:1011D000C968EA6809681160D3F81034DB681D60DB
:1011E000E5E707EBC9034946DA79EB68424528BFD2
:1011F00042461879FFF7BAFB09F10109DDE701342E
:101200000A2CC9D14FF0FF34D9E700BFA80900204C
:10121000D0A1040038A3040038B5094A0123D2F84C
:10122000104482F820341D4604B938BDE3685D716E
:10123000236820465B689847E3681C68F4E700BFB2
:10124000A809002010B5037A052B0C460FD0437A6D
:1012500023B1084A0849204606F06CFC074920469D
:1012600006F068FC2046BDE8104006F051BC002A9C
:10127000F8D0F3E71B37040080480400244404003E
:1012800073B5C38804460D4633B1144A009214491D
:10129000144A284606F04EFC217A05291CD0637AB0
:1012A0004BB1A088FFF74CFB0F4B104953F820209F
:1012B000284606F03FFC227A0D4BA08853F82260A6
:1012C0000021FFF71BFB0B4903463246284602B0BC
:1012D000BDE8704006F02EBC02B070BD1B370400A4
:1012E0002837040020370400EC360400804804004E
:1012F0004C370400403704002DE9F04385B01F4609
:101300000C9D002306460C46904695F80C902B73D6
:1013100029463846FFF7B4FFB8F1060F09D8DFE8D1
:1013200008F00412181F283340003146284606F002
:1013300001FC002229463846FFF784FF85F80C900F
:1013400005B0BDE8F08322683146284606F0F2FB7E
:10135000EFE7D4E900233146284606F0EBFBE8E747
:10136000A36800933146D4E90023284606F0E2FB47
:10137000DFE7E3680193A36800933146D4E90023D3
:10138000284606F0D7FBD4E723690293E36801936C
:10139000A36800933146D4E90023284606F0CAFB2F
:1013A000C7E76369039323690293E3680193A36822
:1013B00000933146D4E90023284606F0BBFBB8E78A
:1013C00008292DE9F84F80460E4617461C4635D8A9
:1013D000002593F80C901D7319461046FFF750FF37
:1013E000DFF88CA0DFF88CB0AE4229D918F80520C0
:1013F0005946204606F09EFB0135082DF4D11A49C6
:10140000DFF874B0204606F095FB4FF0000A564511
:1014100024D918F80A507E2D17D92E225946204675
:1014200006F088FB0AF1010ABAF1080FEFD1012298
:1014300021463846FFF706FF84F80C90BDE8F88F88
:101440005146204606F076FBD6E73FF091FB284454
:10145000427812F0970FE0D02A46DFE70349204692
:1014600006F068FBDEE700BF16370400897A040047
:10147000877A0400103704001837040010B5036899
:101480002F2B044604D9074940F2A71003F038FC7B
:1014900023681F2B83BF03F01F03236002484FF014
:1014A000A04010BDD037040000030050032813B53E
:1014B000044603D908491B2003F022FC074B02A86D
:1014C0001B5D40F8043DFFF7D9FF019A01239340CB
:1014D000C0F80C3502B010BD98370400CC370400BA
:1014E000032813B5044603D90849212003F008FC5A
:1014F000074B02A81B5D40F8043DFFF7BFFF019AB0
:1015000001239340C0F8083502B010BD983704009D
:10151000CC37040008B50020FFF7E2FF0120FFF7F9
:10152000DFFF0220FFF7DCFF0320BDE80840FFF7E4
:10153000D7BF0000F7B5C207054611D5124F0024EA
:101540000326E35D00936846FFF798FF009B013494
:1015500003F5E073042C40F82360F2D1FFF7DAFFC3
:10156000AB070FD5094E00240C25A35D019301A8FC
:10157000FFF784FF019B013403F5E073042C40F86E
:101580002350F2D103B0F0BDCC370400C8370400BB
:10159000054B1B68082B01BF044B1868B0FA80F09C
:1015A000400918BF002070473001001034010010BE
:1015B00008B54FF080430022C3F80C21C3F8102176
:1015C000C3F838254FF0805203F54043D2F8041495
:1015D000C3F82015D2F80814C3F82415D2F80C1457
:1015E000C3F82815D2F81014C3F82C15D2F8141427
:1015F000C3F83015D2F81814C3F83415D2F81C14F7
:10160000C3F84015D2F82014C3F84415D2F82414B6
:10161000C3F84815D2F82814C3F84C15D2F82C1486
:10162000C3F85015D2F83014C3F85415D2F8341456
:10163000C3F86015D2F83814C3F86415D2F83C1416
:10164000C3F86815D2F84014C3F86C15D2F84424D6
:10165000C3F87025FFF79CFF10B1384B384A1A6069
:10166000FFF796FF18B1374BFB22C3F81825FFF799
:101670008FFF48B13449354B0A681B6822F00F02CE
:1016800003F00F0313430B60FFF782FF18B1304BD9
:101690004FF400721A604FF08043D3F80024D20751
:1016A00044BF6FF00102C3F800242A4AD2F8883000
:1016B00043F47003C2F88830BFF34F8FBFF36F8FCE
:1016C0004FF01023D3F80022002A03DBD3F80432B2
:1016D000002B2FDA204B0122C3F80425D3F8002475
:1016E000002AFBD04FF010221221C2F80012D3F8CA
:1016F0000024002AFBD04FF010231222C3F804224A
:10170000154B1A46D3F800140029FBD00021C3F86A
:101710000415D2F80034002BFBD0BFF34F8F0D49D6
:101720000E4BCA6802F4E0621343CB60BFF34F8FE5
:1017300000BFFDE70A4B0B4A1A6008BD8C560040FB
:101740004881030000F00040E40E00405802001001
:101750004096024000ED00E000E001400400FA0580
:10176000080000200090D0030D4930B5A1F5E872C3
:101770000225914201D800200EE08B1ADB1093FB6A
:10178000F5F302EBC30452F83330834205DC02DA8E
:1017900004F10802EDE7606830BD2146E9E700BFCB
:1017A000E83D040008B5FFF7DFFF024B002808BF43
:1017B000184608BDF837040013B502AC002304F83E
:1017C000053D01939DF80330032B08D904210DEB4F
:1017D000010007F02BFC30B9019802B010BD204683
:1017E00007F00EFCEEE70020F7E7000008B500F078
:1017F000E5FA00F0A3F8002007F0E2FB30B18528FD
:1018000004D00A4940F21B1003F07AFAFFF7D4FF24
:101810003FF030FE07F0AAFC30B904494FF49D7048
:10182000BDE8084003F06CBA08BD00BFE83D040005
:1018300008B500F0D9F8FCE762B6704772B6704799
:10184000FFF7BABF00F01EBB034A431A934288BF9A
:101850000B1A1846704700BFFEFFFF7F10B5044605
:1018600000F010FB241804D300F00CFB8442FBD3DF
:1018700010BD00F007FB8442FBD8F9E770B50E46B7
:101880001446054628B940F2431143F65E3016F07F
:10189000C9FE76B94FF4A27143F65E3016F0C2FE6F
:1018A000CCB940F2451143F65E30BDE8704016F009
:1018B000B9BE002CF5D075B1284607F09BFC314627
:1018C000204607F06DFC30B9034940F24D10BDE8E9
:1018D000704003F015BA70BDE83D0400EFF30580D9
:1018E000003018BF01207047F7B54FF08053002536
:1018F0001C6E596E04F0FF0745EA010206A5D5E902
:10190000004502A9224347EA050361E902230822B0
:101910003FF05DF903B0F0BD000000000036CEF4EA
:1019200000487047640E0020704706F0D5BD40F2B5
:10193000A31143F65E3016F075BE000008B517F02F
:101940002DF948B9054B1B7813B9054B1B781BB112
:10195000BDE8084017F028B908BD00BF59020020B3
:101960005C0200202DE9F84307460E4617F016F9F1
:1019700058B1184C184BDFF86890DFF86880E41A0B
:10198000E408240444F003040EB9BDE8F883D9F850
:101990000000C0F10805B542A8BF35462A463946C1
:1019A00040443FF014F9D9F800202A44082AC9F825
:1019B00000202F44A6EB0506E6D1084B5B88022BDE
:1019C00003D941462046FFF777FB0023C9F80030D2
:1019D000DAE700BF10A30400D0A1040080060020B5
:1019E000B00E0020A80E002010B50C4C226882B169
:1019F0000B4B5B88022B0AD90A480B4B0B49C01AC8
:101A0000C008000492B240F00300FFF755FB00232A
:101A10002360BDE81040FFF76DB900BFB00E002095
:101A20008006002010A30400D0A10400A80E00200E
:101A300010B54368044623B16E214FF6674016F097
:101A4000F1FD2378022B03D8BDE8104017F0BAB897
:101A50007A214FF66740BDE8104016F0E3BD4FF025
:101A6000102358694FF08053411C1A695B6908BF05
:101A700003FB02F0A0F510407047000010B54FF0D6
:101A800010234FF080525B69116952690C4C581C4D
:101A900008BF02FB01F32361FFF7E1FF094BE060A0
:101AA00000220949C3F80821204606F03FFA28B170
:101AB0000649B720BDE8104003F022B910BD00BFB1
:101AC00048070020B40E00206C4E04002D3E040098
:101AD0004FF4804070470220704708B513460A460D
:101AE00031B143B1014618463FF071F8002008BDFE
:101AF0006FF00A00FBE76FF00B00F8E70128F8B57C
:101B000007460C4616461D4610D80B44B3F5804FC9
:101B10000FD28AB19DB1FFF7A2FF04EB87310144D8
:101B20002A4630463FF053F80020F8BD6FF03800E9
:101B3000FBE76FF01600F8E76FF00B00F5E76FF0CA
:101B40000C00F2E70128F7B507460C4616461D467D
:101B500033D80B44B3F5804F32D2A2B3AB0835D0A3
:101B6000FFF77DFF04EB8734AB07044405D04FF447
:101B7000A6714FF6674016F055FD17F02BF8074693
:101B80000028FAD117F016F8214600972B46324666
:101B9000104806F007FA044628B140F25B114FF6F0
:101BA000674016F03FFD17F015F80028FBD1201C08
:101BB00018BF0120404203B0F0BD6FF03800FAE7D3
:101BC0006FF01600F7E76FF00B00F4E76FF00C0012
:101BD000F1E700BF4807002001282DE9F041064643
:101BE0002DD8FFF73CFFDFF85C8000EB863505F56C
:101BF000804716F0EFFF04460028FAD116F0DAFF0E
:101C0000234601222946404606F08CFA48B14FF699
:101C1000674040F2A51116F005FD4FF0FF30BDE81A
:101C2000F08116F0D7FF04460028FAD105F580555B
:101C3000AF42DED1304616F0D5FF2046EFE76FF019
:101C40003800ECE74807002010B5084CD4F80831FC
:101C500053B19BB22246D4F8041194F80001FFF767
:101C600071FF0023C4F8083110BD00BFB40E00207E
:101C70002DE9F8431C4C1E46D4F8083181460F4626
:101C800090466BB194F80021824207D1D4F8042128
:101C90001A44914202D1B3F5807F01D1FFF7D4FFFE
:101CA000D4F8080118B984F80091C4F80471C0F59B
:101CB0008075B54234BFADB235464DB12A46414676
:101CC00020443EF084FFD4F808312B44C4F8083196
:101CD000761BB6B216B93046BDE8F883FFF7B4FFFD
:101CE0002F44A844DCE700BFB40E002007B50C4B1E
:101CF00018680090FFF7B3FE042200F500410DEBD9
:101D000002003EF064FF042269460DEB02003EF043
:101D10004FFFB0FA80F0400903B05DF804FB00BF4C
:101D2000293E040038B505460C46FFF798FE00F53D
:101D300000402A4621460430BDE83840FFF7CDBEBA
:101D400070B506460D461446FFF789FE04F50044BB
:101D50000434324629462044BDE87040FFF7BDBE3A
:101D600000487047683E040004220321027081701D
:101D7000002206214270C17042607047B0F5A27F18
:101D800001D116F031BF704710B5084CFFF756FD72
:101D90002378012B05D1FFF7E3FF07F031FF002384
:101DA0002370BDE81040FFF747BD00BFC00F002003
:101DB000014B1878704700BFC00F00202DE9104874
:101DC00087B004A8FFF7D0FFFFF7CAFF1C4A04A999
:101DD00007F02EFE18B11B49662002F091FFFFF7B5
:101DE000BFFF0368D3F810154FF47030C9B24FF03D
:101DF000000C20FA01FBBCF1010F08BFBBF1000F82
:101E000008D3114940F28D20CDE902BC02F078FFE1
:101E1000DDE902BCCDE902BCFFF7A2FFDDE902BCAF
:101E2000012402235A462146009407F06CFFFFF775
:101E300097FF07F0AFFE054B1C7007B0BDE8108898
:101E40007D1D0000703E0400AA3E0400C00F00206B
:101E500008B5FFF7F3FC0A4B1B782BB9FFF7AEFF71
:101E6000BDE80840FFF7E8BCFFF77AFF07F0F0FE97
:101E70000028F5D1FFF774FF07F08CFEF0E700BFF4
:101E8000C00F002038B5FFF7D9FC0B4B1B78012B96
:101E90000FD1FFF765FF022107F0F4FE04461BF0A7
:101EA0006DF90546FFF7C8FC4FF4705000FB054084
:101EB00038BD0024F3E700BFC00F00207FB53AF023
:101EC0009BF91022002102A83EF0A5FE172205234F
:101ED000CDE9002301238DF80D308DF8113040F24B
:101EE0001F6340F21E72ADF81230684641F20F03D4
:101EF000ADF80E20ADF814303CF042FF20B16A215D
:101F000046F67B6016F08EFBFFF70EFD01203AF0DF
:101F1000EDF93AF097F9032801D13AF09FF9012041
:101F20003AF0E8F907B05DF804FB3AF061B907B59B
:101F300002AB23F8020D18463AF058F903B05DF8E9
:101F400004FB07B502AB23F8020D18463AF052F92C
:101F500003B05DF804FB10B54FF4705444432046C1
:101F60003AF0A1F90028FAD010BD3AF027B93AF0BA
:101F700036B910B504463AF034F9207010BD00307F
:101F800018BF01203AF0B4B9003018BF01203AF070
:101F9000ADB9003018BF01203AF0A6B908B93AF03F
:101FA00060B93AF066B908B53AF04CF9C31E584228
:101FB000584108BD08B53AF045F9023818BF01206C
:101FC00008BD13B50446032C104608D0042C10D0CD
:101FD000012C14D13AF09FF9204602B010BDA1F5B2
:101FE0009C420093203A44F6206300213AF053F9D2
:101FF000F3E7002102B0BDE810403AF040B946F6E0
:102000007B6040F24B1116F00DFB0020E5E710B5A8
:102010000C46FFF785FC036A013303622046BDE8E6
:10202000104010F03BB83AF043B910B50C46072900
:1020300042D8DFE801F004171D23292F353BFFF7B5
:102040006FFC436A01334362012000FA04F414F088
:10205000DA0F03D114F0240F2ED00420BDE8104075
:1020600010F058B8FFF75CFC836A01338362EBE73A
:10207000FFF756FCC36A0133C362E5E7FFF750FC84
:10208000036B01330363DFE7FFF74AFC436B013364
:102090004363D9E7FFF744FC836B01338363D3E7E2
:1020A000FFF73EFCC36B0133C363CDE7FFF738FC9A
:1020B000036C01330364C7E710BD2DE9F041054609
:1020C0000E4617469846FFF72BFC0468013404605F
:1020D00043463A4631462846BDE8F04110F03EB846
:1020E00008B506280AD8DFE800F0040D13191F25EB
:1020F0002B00FFF715FC436801334360134B0022AC
:102100001A6008BDFFF70CFC836801338360F5E7B4
:10211000FFF706FCC3680133C360EFE7FFF700FC7D
:10212000036901330361E9E7FFF7FAFB4369013310
:102130004361E3E7FFF7F4FB836901338361DDE784
:10214000FFF7EEFBC3690133C361D7E7B47A002020
:10215000003218BF012211B111463AF0D6B811462B
:102160003AF0CAB808B500203AF0D2F80120BDE82C
:1021700008403AF0CDB8F0B58BB01C46054616467F
:1021800015F086FD0146284615F06CFE022C074628
:1021900021D0032C24D064BB4FF6FF73ADF826305A
:1021A00000230122CDE906230593149B0493BDF877
:1021B0004C300393BDF8483002939DF844300193AE
:1021C0009DF8403000930DF12602234639462846FB
:1021D0001CF030F910E03378727843EA0223DDE72F
:1021E000304615F07FF94FF6FF739842ADF82600A0
:1021F00004D1284615F046FC0BB0F0BD0224CFE711
:10220000024B0020C3F80005704700BF00A0025039
:1022100038B50A4B00251D60BFF35F8F084C0123C2
:10222000C4F800353EF00CFCC4F8005520B1052878
:1022300048F2035018BF032038BD00BFF0680020EB
:1022400000A0025000B583B002900091019244F2C8
:10225000010071466A46FFF76AFB03B000BD00004B
:1022600012F0030310B511D1094C22604C1CE4009C
:10227000A4B22244074C2260074A1370074A137025
:10228000074A1080074A1846118010BD0720FCE756
:10229000C80F0020C40F0020C10F0020D00F002065
:1022A000CC0F0020CE0F0020F8B5124C124D264660
:1022B00022782B789A4200D1F8BD23780F48104A33
:1022C000078812680F48DBB219B202EBC10C006834
:1022D00052F83120BCF8041003FB070090470A4A6B
:1022E00023781288DBB29A4286BF0133DBB2002327
:1022F0003370DDE7D00F0020C10F0020CC0F00208D
:10230000C80F0020C40F0020CE0F0020D0E9022308
:10231000D1E90201994208BF90422CBF0120002060
:10232000704700002DE900480C4802F08BFB0C4B75
:10233000D3E9002312EB000B43F1000C094BD3E966
:1023400000239C4508BF93455846614603D21BF1C4
:1023500080704CF10001BDE8008800BF2000002023
:10236000D80F00204010002037B505460C460A481B
:1023700001A902F0E5FC60B10570446001A90648BE
:1023800002F008FD18B1054802F060FB002003B020
:1023900030BD0420FBE700BF0C000020200000201F
:1023A0002DE93048436904461BB91B497C2002F0E3
:1023B000A7FC1A4B1B781BB900252846BDE83088BE
:1023C00094F8203003F0FF05002BF5D0FFF7AAFFAB
:1023D000D4E90223994208BF904217D323690BB96D
:1023E00084F82030D4E90530984721690029E3D0EA
:1023F00094F8203003F0FF05002BDDD0D4E9022350
:1024000012EB010B43F1000CC4E902BC2146044865
:1024100006F070FCD1E700BF303F0400E00F002061
:10242000083F040013B5114B1149186801900823A7
:102430005822104802F071FC044698B90E4A0F4821
:1024400001A902F093F9044660B901210B4802F09A
:10245000E5FA01230A4A0948194602F033FA094B02
:1024600001221A70204602B010BD00BF043F0400D4
:10247000E40F00200C00002039250000200000207F
:10248000FFFF7F00E00F002070B50C4615460646A2
:1024900020B90A494FF4007002F032FC35B940F21D
:1024A0000120064902F02CFC072070BD621E336833
:1024B000544254415D611C610020F6E7303F040046
:1024C00070B50D461646044620B90D494FF4047008
:1024D00002F016FC94F8203083B9A661FFF722FFC2
:1024E000421941F10003C4E90223236903B12561C4
:1024F00021460020BDE87040FFF736BF002070BDC8
:10250000303F040010B5044620B9074940F22620A8
:1025100002F0F6FB002384F8203021460120BDE8BC
:102520001040FFF721BF00BF303F0400014802F018
:1025300089BA00BF200000202DE9F74F054602F0C0
:1025400071FA40B16349D1E9002312F1807643F179
:102550000007C1E900670021284602F06DFAB8B112
:102560005D4C2368A3B1284602F06CFA23689B688F
:10257000C01A20F07F40B0F5960F04D3574940F2BF
:10258000051002F0BDFB2068FFF70AFF002323605F
:102590000121284602F050FA20B1FFF7C3FE504B4C
:1025A000C3E9000101A94F484B4E4F4C4F4F02F079
:1025B00001FC002845D1DFF830A1474CDFF834B1E9
:1025C000504606F0C3FB236800287AD083B1236805
:1025D000D0E90201D3E90223994208BF90422DD2EB
:1025E000236893F820301BB12168504606F082FB27
:1025F000504606F09BFBD0E902890746FFF792FEA2
:10260000B8EB000869EB010940464B46012873F11D
:10261000000347DB364EB04542D9FFF787FF8219EA
:102620004FF496030021584602F07CF9002841D16E
:10263000236813B9284602F029F9276003B0BDE8E2
:10264000F08F0378012B20D00BD3022B14D14FF045
:102650000008204606F06AFB002838D080F8208069
:10266000F7E7436893F8202032B9012283F820204D
:102670004168204606F03EFB01A91A4802F0C5FB5E
:1026800001A9184802F096FB93E733684168994224
:1026900008BF0023204608BF336006F063FBEBE76A
:1026A000BA68BDE70021584602F0C0F93846FFF786
:1026B00077FE85E70D28F9D00849CF2002F020FBEE
:1026C0007EE7002BBAD1284602F0EEF8B6E70123E8
:1026D0003B70D1E7D80F002048100020303F0400A5
:1026E000401000200C000020083F0400E00F0020F4
:1026F000FFFFB40020000020024B5B6803B11847C5
:10270000704700BF4C100020024B01465A68186801
:10271000104700BFA01000200378052B0CD1084AF9
:10272000D2F88434D2F8802412F0FF0F04D1054A85
:10273000DBB2052B08BF1046034B1B68184700BFD0
:10274000007002402C4004004C100020FFF7E4BF52
:1027500038B50D46044620B9064940F21D1002F076
:10276000CFFA6378AB4283BFA078401900190020EC
:1027700038BD00BF743F040038B50D46044618B993
:102780000649EA2002F0BCFA237AAB4283BF09343F
:1027900005EB45056019002038BD00BF743F0400FB
:1027A00070B50D46044618B90B49E92002F0A8FAA5
:1027B00063681BB90849EA2002F0A2FA63681B6843
:1027C0001BB90549EB2002F09BFA636829462046B5
:1027D0001B68BDE870401847E13F040008B520B110
:1027E000044940F2552002F08BFA0348BDE8084046
:1027F000FFF792BFE13F04003040040010B50446EB
:1028000020B9044940F21D2002F07AFA23681868C2
:1028100010BD00BFB03F040000F00F0310F0800FA8
:1028200010B51CB20AD0082B04D909494FF4B9706D
:1028300002F066FA074800EBC40010BD082B04D96B
:1028400003494FF4BC7002F05BFA0348F3E700BFA2
:10285000E13F040058100020A010002070B50D4684
:102860000646FFF7D9FF044605604DB9730604D14B
:1028700005494FF4CE7002F043FA0023636070BD47
:102880006B681B68FAE700BFE13F040001280AD02B
:1028900006D3022809D006494FF40F7002F030BA6F
:1028A0000448FFF739BF0448FBE70448F9E700BFD5
:1028B000E13F0400204004002440040028400400BC
:1028C00038B5831EDBB2062B98BF194A194C98BF46
:1028D000D25C2378A3F10203DBB288BF0022062B6F
:1028E0009ABF1349CB5C00239342054603D0A2B1A3
:1028F000114806F0CDFA022D01D0082D10D1012388
:102900002278022A01D0082A0CD101229A4202D050
:1029100053B108F0D9FD257038BD06F0F5FAEAE7A5
:102920000023EDE70022F1E708F0C4FDF3E700BF64
:102930006D3F0400F1100020280000202DE9F04F29
:1029400087B006AC002644F8106D054689469246CD
:1029500098466B6800225F68294601232046B847E5
:1029600040B98DF80600049004460746BE4203D8DD
:1029700005202AE00136ECE76B680DF10602D3F87A
:1029800004B02946012304A8D8476B680DF107025B
:10299000D3F804B02946012304A8D8479DF807308E
:1029A0004B459DF8063015D1544511D1109A13604E
:1029B00088F8003088F801906A68023B546829461C
:1029C00008F1020204A8A047002007B0BDE8F08F7C
:1029D0000134E4B26A68023BD2F804B0294600220E
:1029E00004A8D8479DF806301F44BFE72DE9F341FE
:1029F000054606F0F5F920B92E4940F20B3002F0F9
:102A00007FF92D4808F0A2FD044600283AD12B4B4F
:102A100018702B4B18602B4B0146186048222A482F
:102A20003EF0F9F84822214628483EF0F4F8284BB9
:102A300065BB284A1D72C3E900251A680AB9254AF0
:102A40001A60002006F084FA30B1852804D0194AB3
:102A500040F23931FFF7F6FBDFF87C800024214695
:102A60004046FFF789FE651CEDB20746F8B902A99A
:102A70000B2301F8043D1848FFF792FE044608B105
:102A800008F0BEFB204602B0BDE8F08195E80700E3
:102A900083E80700D1E741460078FFF7DFFEF1B297
:102AA0003846FFF755FE01360028F4D1D7E7002657
:102AB0002C46F4E7E13F04004D270000F110002010
:102AC000E8100020EC10002058100020A01000207A
:102AD0004C100020E92E0000AC40040010B508F0B6
:102AE00097FC08B9082010BD08F09AFC044600289D
:102AF000F8D1064806F047FA0028F4D0044A4FF40B
:102B00006771FFF79FFB2046EDE700BF1C40040004
:102B1000E13F040008F08ABB08B508F08BFC20B147
:102B2000044940F2AB3002F0EBF8BDE8084009F090
:102B3000E1BA00BFE13F040008B508F071FC20B91C
:102B40000A4940F2B23002F0DBF84FF08043D3F88C
:102B50003824920704D50648BDE80840FFF7DCBDDD
:102B6000D3F83824D107F2D408BD00BFE13F0400F8
:102B70003140040007B502A8822300F8043DFFF7A6
:102B8000CBFD03B05DF804FB2DE9F341044620B909
:102B90003B4940F2445002F0B3F8636823B9384926
:102BA00040F2455002F0ACF863681B6823B9344921
:102BB00040F2465002F0A4F823681B6823B1304964
:102BC00040F2475002F09CF808F02AFC30B12C4942
:102BD00040F24B5002F094F8002617E008F018FC81
:102BE0000028F9D1F3E70078FFF716FE036808F133
:102BF000010823B1112026E04FF000083E465FFA9D
:102C000088F12846FFF7A4FD0028ECD13146204684
:102C1000FFF7B2FD771CFFB205460028ECD129462C
:102C20002046FFF7A9FD6E1CF6B28046D0B9154DBF
:102C3000134E2B68CBB902A90B232C60204601F858
:102C4000043DFFF7ADFD02B0BDE8F08121460078FC
:102C5000FFF704FEF9B24046FFF77AFD013700287E
:102C6000F4D1DCE700273546F4E7A34204D131462E
:102C700040F2715002F044F82B681D68D9E700BF9C
:102C8000E13F0400E8100020024B1878003018BF24
:102C900001207047F010002000F00F03072B10B543
:102CA000044604D808F05EFF204609F0F3FA2046F7
:102CB000BDE8104009F09CBA09F064BA014B1868ED
:102CC000704700BFE81000202DE9F8430E4B1C6848
:102CD00080460F46ACB194F808900026F5B24D45F9
:102CE00004D32046FFF78AFD0446F3E72946204631
:102CF000FFF742FD0378434506F10106EED107B127
:102D00003D702046BDE8F883E81000201146FFF72B
:102D100047BD00F00F03082B10B50C4608D8FFF78D
:102D20007BFD006820B12146BDE81040FFF738BDAB
:102D3000102010BD38B5074B1C68054604B938BDD6
:102D400029462046FFF72CFD2046FFF757FD044695
:102D5000F4E700BFE810002038B5084B1C680546B2
:102D60000CB9062038BD29462046FFF719FD062874
:102D7000F8D12046FFF742FD0446F1E7E8100020B5
:102D800038B504460D4608F02AFC48B1054B1B78BF
:102D9000022B05D129462046BDE8384008F02CBC5E
:102DA000082038BDF110002038B504460D4608F063
:102DB00016FC48B1054B1B78022B05D1294620464D
:102DC000BDE8384008F09EBC082038BDF110002056
:102DD00070B543689B6805460E4614469BB92B7A2E
:102DE000B34204D20F4940F2D32001F089FFB4B9B5
:102DF00031462846FFF7C0FC46780546E1B28E42D0
:102E000005D8002002E098470628E8D070BD284683
:102E1000FFF79EFC0078FFF73FFF0134EEE7072045
:102E2000F4E700BFE13F040070B54368DB68044687
:102E30000D4603B19847237AAB4204D20B4940F2C6
:102E4000F22001F05DFF29462046FFF795FC467809
:102E500005460024E1B28E4200D870BD2846FFF737
:102E600077FC007809F08EF90134F3E7E13F0400C4
:102E700043681B6903B1184718467047F8B50D4BF6
:102E80000D4E1C6804B9F8BD277A0025E9B2B94295
:102E900004D32046FFF7B2FC0446F3E700222046A5
:102EA000FFF796FF20B1314640F2447001F028FF51
:102EB0000135EBE7E8100020E13F040070B5094B55
:102EC0001C6804B970BD267A0025E9B2B1422046DB
:102ED00003D3FFF793FC0446F3E7FFF7A5FF0135A3
:102EE000F3E700BFE810002038B58C4B1B6805469F
:102EF00023B98B4940F2FF3001F002FF01F0DEFB05
:102F0000052804D8864940F2064001F0F9FE2C78E5
:102F1000092C20D023D8032C00F0C08012D8012C1B
:102F200000F0AA8040F291800320FFF7C9FC022044
:102F3000FFF7E2FB2846FFF7FDFE2846BDE83840D4
:102F4000FFF7E2BB052CF8D0C0F0B780062C00F0EC
:102F5000C380082C13D12046FFF7CEFB99E0812CCB
:102F600014D005D80F2CF6D0802C4AD00A2CF1E7CB
:102F7000832C52D027D3842C58D0852CDDD068499F
:102F80004FF4A060BDE8384001F0BABE6548FFF7D5
:102F9000BBFB6448FFF7CEFE0D20FFF7ADFBFFF74C
:102FA0008DFF01F008F8604B1B6853B95F4B187A2E
:102FB00000F0010008F0F4F90120BDE83840FFF707
:102FC0007FBC0120F4E7FFF779FF09F069F80020E2
:102FD000FFF776FC5648FFF7ADFE5548FFF794FB28
:102FE0000E20FFF789FB534B1B78023BDBB2062B0D
:102FF0003AD8514AD35C002B36D0BDE8384005F0B2
:1030000083BF4C4B1B78062B05D0072B01D0052B1B
:103010002AD10220D1E70820CFE7464B1B78032BAB
:1030200022D109F089F8F8B10420C6E7414B1B789A
:10303000032B05D109F080F810B10420FFF740FC04
:1030400008F006FA80B10620B7E73A4B1B78032B4D
:1030500001D0082B02D13948FFF746FF0020FFF7C7
:103060004BFB314B1C6804B938BD20462946FFF79D
:1030700097FB23685C68F6E7FFF720FF00F092FFFC
:103080000220FFF71DFC2046FFF736FB2846FFF71E
:103090003BFB2846BDE83840FFF74CBE254B1B786C
:1030A000082B06D10220FFF70BFC08F017FA0320CB
:1030B000EAE70520FFF704FCF9E70320FFF71CFB14
:1030C0001F48FFF721FB1E48FFF734FE194B1B7802
:1030D000062B9ED1072070E7A878FFF79DFB0368B9
:1030E000044623B90E4940F2DC4001F009FE636852
:1030F00023B90B4940F2DD4001F002FE636820680D
:10310000294698470028AFD0A87800F00F03013B6C
:10311000062BA9D8BDE8384008F0E8BCE81000202C
:10312000E13F040032400400EC1000204C1000206D
:1031300033400400F11000206D3F040034400400CF
:10314000354004004360CA699A4227BF8A69026019
:1031500001F12802026026BF0B67CB618B6700205C
:103160007047000038B50D46044618B90649EA20F4
:1031700001F0C6FD237AAB4283BF093405EB450558
:103180006019002038BD00BF743F040038B50D46FB
:10319000044620B9064940F21D1001F0B1FD6378E4
:1031A000AB4283BFA07840190019002038BD00BF92
:1031B000743F040008B50121FFF7D4FF0121FFF798
:1031C000E5FF007808BD00002DE9F8431746C94A1D
:1031D00099460B7A13700E460546904620B9C649AB
:1031E00040F2EB2001F08CFD2B68B3F5487F00F036
:1031F000C58200F2CF8040F20232934200F0348266
:1032000062D840F2F222934200F0F08125D840F2D9
:10321000EF22934200F0CF81B3F53C7F0AD2002B1E
:1032200000F0B38140F2EE22934200F0B981002019
:103230002860B3E100F0CD8140F2F1229342F6D153
:1032400000240FB12B793B55013402234C452B71DF
:10325000C0F0CD8140F2F2239EE140F2F52293428C
:1032600000F0DD8114D840F2F322934200F0CA81CD
:10327000B3F53D7FDBD100240FB12B793B550134F1
:1032800000234C452B71C0F0CB8140F2F52383E144
:10329000B3F53F7F00F0DB8140F2FD229342C6D1BF
:1032A00000240FB12B793B55944B30461978FFF72A
:1032B00059FF934B013418604C4503782B71C0F0D3
:1032C000D48140F2023367E140F20F32934200F0C2
:1032D0000982B3F5447F38D2B3F5427F00F0DF8135
:1032E0001CD840F20332934200F0CA81B3F5417F0B
:1032F0009DD100240FB12B793B55814B327D1B684A
:103300001B789A4204F1010440F0E28102234C450B
:103310002B71C0F0C5814FF442733DE140F2093298
:10332000934200F0C88140F20A3293427FF47FAFAB
:1033300000240FB12B793B5501340023A1452B719B
:1033400000F2F0814FF4467326E1B3F5467F00F0BA
:10335000E88106D8B3F5447F00F0D08140F2113205
:10336000E3E740F21E32934200F0F08100F2FA816E
:1033700040F21D3293427FF45AAF00240FB12B79F3
:103380003B55013424234C452B71C0F0E08140F2C1
:103390001E3301E140F23232934200F05A826AD881
:1033A000B3F54A7F00F01D8232D840F225329342B5
:1033B00000F0FE8115D840F22132934200F0EB81FB
:1033C000B3F5497F7FF433AF00240FB12B793B5520
:1033D000013424234C452B71C0F0EB8140F225339E
:1033E000DAE040F22632934200F0EE8140F22732DA
:1033F00093427FF41CAF00240FB12B793B5501346D
:10340000B37D2B714C45C0F0ED814FF44A73C3E09E
:1034100040F22D32934200F0038215D840F22B3255
:10342000934200F0EA81B3F54B7F7FF400AF0024B4
:103430000FB12B793B55013402234C452B71C0F061
:10344000F08140F22D33A7E040F22E32934200F09B
:10345000F38140F2313293427FF4E9AE00240FB1A0
:103460002B793B55013424234C452B71C0F0F2815C
:1034700040F2323390E040F24E32934200F0378215
:1034800042D840F23532934200F0FC8115D840F228
:103490003332934200F0E981B3F54D7F7FF4C7AE3C
:1034A00000240FB12B793B550134B37D2B714C4572
:1034B000C0F0E98140F235336EE040F24932934288
:1034C00000F0088240F24A3293427FF4B0AE00240A
:1034D0000FB12B793B550B4B1978094B1868FFF747
:1034E00055FE013403782B714C45C0F0018240F247
:1034F0004E3351E0F410002054400400F31000203B
:10350000F8100020F510002040F25F32934200F0E6
:103510001382B3F5587F14D240F25332934203D052
:10352000B3F5567F7FF483AE00240FB12B793B5562
:1035300001344023A1452B7100F2FF8140F25F333B
:103540002AE040F26532934200F00D8240F26A3286
:10355000934200F00882B3F5587F7FF468AE0024F0
:103560000FB12B793B55AB4B327D1B681B789A42D0
:1035700004F1010440F0ED81336A4C451B782B7156
:10358000C0F0F28140F2653306E008232B71B9F1F7
:10359000000F05D140F2EE232B600120BDE8F88337
:1035A0000FB12B793B700B23B9F1010F2B710ED8A2
:1035B00040F2EF23F0E700240FB12B793B550134A3
:1035C000337D2B714C4505D34FF43C73E4E7012464
:1035D000F2E700240FB12B793B55013402234C450F
:1035E0002B71FFF42EAE40F2F123D5E700240FB18A
:1035F0002B793B55013402234C452B7103D340F208
:10360000F323C9E700240FB12B793B550134737EB6
:103610002B714C45FFF430AE4FF43D73BCE70024F2
:103620000FB12B793B557C4B002201341A707A4B39
:103630001A7898F800309A4202D340F27533ABE71B
:103640000923A1452B7103D84FF43F73A4E700244D
:103650000FB12B793B55013404234C452B71FFF4FA
:1036600020AE40F2FD2397E700240FB12B793B55A4
:10367000013400234C452B7103D340F203338BE715
:1036800000240FB12B793B55624B1B6801345B78EA
:103690002B714C45FFF42EAE4FF441737CE70024B0
:1036A0000FB12B793B55013402234C452B7103D3C9
:1036B00040F2093370E700240FB12B793B550134F8
:1036C000737E2B714C45FFF434AE40F20A3363E74E
:1036D000B27D9A421FD10A234C452B7103D340F28D
:1036E0000F3359E700240FB12B793B5501340023E8
:1036F0004C452B7103D34FF444734DE700240FB1B5
:103700002B793B55013400234C452B71FFF411AE4E
:1037100040F2113340E7414940F2153001F0F0FA30
:103720000BE600240FB12B793B553A4B327D1B68D9
:103730001B789A4204F1010440F0BC8005234C45FB
:103740002B71FFF41BAE40F21D3325E700240FB1AF
:103750002B793B55013400234C452B7103D340F2A8
:103760001F3319E700240FB12B793B550134102387
:103770004C452B7103D34FF448730DE700240FB170
:103780002B793B55013401204C45287104D340F27C
:1037900021332B6002E700240FB12B793B55013414
:1037A00005234C452B71FFF410AE4FF44973F3E63B
:1037B00000240FB12B793B55013401204C45287171
:1037C00003D340F22633E4E700240FB12B793B55B5
:1037D000013403234C452B71FFF40EAE40F2273326
:1037E000DAE600240FB12B793B55013404234C4514
:1037F0002B7103D340F22B33CEE600240FB12B798B
:103800003B55013424234C452B71FFF411AE4FF48A
:103810004B73C1E6F8100020F31000205440040060
:1038200000240FB12B793B55013402234C452B71F9
:1038300003D340F22E33AFE600240FB12B793B5572
:10384000013405234C452B71FFF409AE40F23133AE
:10385000A2E600240FB12B793B55013406234C45D9
:103860002B7103D340F2333396E600240FB12B794A
:103870003B550134337D2B714C45FFF412AE4FF4B0
:103880004D7389E600240FB12B793B5501343E4B33
:103890001B685A783D4B1A703D4B00221A703C4B06
:1038A0001A783A4B1B789A420DD33A4A137801336F
:1038B0001370BCE6B27D9A42E9D0374940F23E30FF
:1038C00001F01EFAE3E70723A1452B7103D840F26C
:1038D000493361E600240FB12B793B5501340523B0
:1038E0004C452B71FFF4F4AD40F24A3354E600240A
:1038F0000FB12B793B55244B327D1B681B789A42C4
:1039000004F1010407D103234C452B71FFF40DAEE4
:1039100040F2533340E6B27D9A4207D102234C4530
:103920002B71FFF402AE4FF4567335E61A494FF48B
:10393000577001F0E5F9FCE500240FB12B793B55F8
:10394000013400234C452B71FFF40AAE4FF4587339
:1039500022E6B27D9A4210D100234C452B7103D34D
:1039600040F26A3318E600240FB12B793B5501343D
:10397000074A13780133137091E7074940F26E301C
:1039800001F0BEF9F4E700BFF8100020F2100020AB
:10399000F5100020F31000205440040010B5044638
:1039A00018B90649392001F0ABF923681BB903495E
:1039B0003A2001F0A5F920680C3010BD54400400F5
:1039C0004360CA699A420ED38A6902608A69C869EB
:1039D0001A448A610A6FC01A1A44C86100300A6723
:1039E00018BF0120704701F1280202608B67002098
:1039F0007047000001492C2001F082B954400400B6
:103A000070B50D46044608B9FFF7F4FFE36923B12A
:103A100029462046BDE87040184770BD10B50446E1
:103A200008B9FFF7E7FF2046FFF7B8FF0023C0E91A
:103A30001B33C0E91D3383828361036200F12803D5
:103A4000836610BD2DE9F0430E4689B0054620B9C6
:103A5000AC4940F2B72001F053F926B9A9494FF417
:103A60002E7001F04DF933780E2B20D8DFE813F0DB
:103A700063016001630163011F000F00C0001F00AC
:103A80001F005C011F00630163016301630125B92D
:103A90009C494FF4D17001F033F97278D1094FEAA3
:103AA00052133BD013F0030303D0012B26D006247E
:103AB00042E102F01F02012AF9D1B478062CF6D1B6
:103AC00005A8039300F04EFD03ABF2783179009323
:103AD000074603462846FEF731FF052800F02C81F3
:103AE000039B3F2B03D98749A32001F009F9039ACF
:103AF0003946701C00F07AFA04461DE10DB9FFF753
:103B000079FF2846FFF74AFFB378212BCFD1B6F8CB
:103B10000720072ACBD100F10C01EAE7012BC6D11F
:103B20000DB9FFF767FF2846FFF738FFB378202B62
:103B3000074634D0222BBAD1B6F80730002BB6D1C5
:103B4000037DB6F80340848203F0010304F001040E
:103B5000A34200F0F080A4B2002C0CBF032102218C
:103B60002846FFF74DFF002C40F0E5800121284654
:103B7000FFF7F8FA2146FFF709FB007808F072F921
:103B80002846FFF717FB08F06DF907F12803BC6121
:103B90003C62C7E91B44C7E91D44BB66CCE0B6F8EC
:103BA0000730072B83D10DB9FFF724FF2846FFF715
:103BB000F5FEB3780370B6F807304370831C002419
:103BC0000593437806932046079400F057FD20465E
:103BD00005A9FFF7D5F8044630B94B4B03A9CDE949
:103BE000033500F0F1F90446002000F057FDA3E092
:103BF00000212846FFF7B6FA0021FFF7C7FAB3788D
:103C000002789A4200F097801B06F4780AD524B116
:103C1000032C00F0908003248EE001212846FFF75A
:103C2000EFFE89E0012C00F08680F1D20DB9FFF79C
:103C3000E1FE2846FFF7B2FE06462846FFF7BAFA2D
:103C4000324BCDE90536F7698046B7B9336F346A30
:103C5000F766C6E91C736CB106F1200103C906F1D1
:103C6000180383E80300376205A94046FFF79CF874
:103C7000044600E0B4610021D0E7D6F87890B0693E
:103C80004F4528BF4F4606F128043A4621463CF0EE
:103C90009EFF336F3B447367A9EB0703F366336AF8
:103CA00000223C443267B466002B3BD006F1200969
:103CB00099E8030006F1180787E80300144632620A
:103CC000F36EB0691BB9B469002CCDD1D3E7F269AA
:103CD000B16E9A421CD83CF07AFFF369F26E7367BA
:103CE000D21AF266B26E1A44B26600212846FFF775
:103CF00087FE336AB3B199E8030087E803003462B2
:103D0000DEE700BF54400400413D0000C13900001F
:103D10001A463CF05CFFF26EF36932679B1AF3615E
:103D2000B3691344B361CEE703212846FFF768FE69
:103D30002846FFF773FE0024204609B0BDE8F08353
:103D400010B5044660B90846FFF728FE0378202B1B
:103D500008D1811C07220C303CF039FF204610BDF1
:103D60000320FCE70620FAE77FB5144606460D4619
:103D7000FFF714FE838ADA0713D501213046FFF7D7
:103D8000F1F90021FFF702FAA30600780CBF012326
:103D9000002301A9CDE901540393FEF7F1FF04B01C
:103DA00070BD0820FBE708B5FFF7F8FD406F08BDC0
:103DB0002DE9F341074690460E4621B91E4940F2CF
:103DC000FB3000F09DFF3846FFF7E8FD838ADB07F4
:103DD00004462FD5002000F051FCE56EB5B14545F5
:103DE00028BF4546A16E2A4630463CF0F0FEE36E01
:103DF00065675B1BE366A36E2B44A366002400206B
:103E000000F04CFC204602B0BDE8F081A3697BB90C
:103E1000C4E906683846FFF7CDF9084B6946CDE995
:103E20000034FEF7C1FF002814BF04469224E6E7E1
:103E30001124E4E70824E5E754400400453100007C
:103E40000020704710B5044620B9044940F21D20F7
:103E500000F056FF2368186810BD00BFB03F040093
:103E60002DE9F04F4B6887B080460C4693465BB90E
:103E70000868FFF7E7FF38B9A5682DB9C8E900550C
:103E8000284607B0BDE8F08FBBF1400F04D9384990
:103E900040F2711000F034FF07F07EFCE7680290FA
:103EA0005F453B4628BF5B4601934FF0000904F194
:103EB00010034E4601250393019B002B31D0A368CC
:103EC000019A616893429A4628BF924600292CD0F5
:103ED000029B524698193CF07AFE00236360E26828
:103EE000A368A2EB0A02E260019AA3EB0A03A2EB29
:103EF0000A02A3600192564433B9B9F1000F03D00E
:103F00002068FFF79FFF2060E368002B2ED0A36896
:103F1000002BD1D12268B2B9626016B1B34588BF17
:103F20000025029BC8E90036AAE7002BD7D02168FC
:103F3000029A4B680398D3F8049032445346C8471A
:103F40004FF00109CBE70DF1180A4AF8083D216846
:103F50004B685B6800221F4650460123B84708B9EA
:103F60002061A9E7A3680133A360F0E71D46A3E73A
:103F700006410400084B1A7882420CD0052818BF6D
:103F8000064A187018BF137805481CBF23F00203B7
:103F90001370FEF7A9BF70470811002024110020FC
:103FA000BC40040008B50020FEF776FE8020BDE886
:103FB0000840FEF771BE08B50020FEF77DFE8020A8
:103FC000BDE80840FEF778BE38B505460C4607F058
:103FD00059FEA84203BFD4E90001034BC3E9000125
:103FE000102008BF002038BD281100207FB5C388ED
:103FF00093421D4628BF154693420E46144620D9CB
:10400000802007F0E7FAB4FBF0F303FB1040B0FAAE
:1040100080F0400903900020CDE9016500F02EFBFF
:1040200001A98020FEF7ACFE044620B90649802095
:10403000FFF7CAFF0446002000F030FB204604B022
:1040400070BD0020E6E700BFF04004002DE9F04F0E
:104050000C78062C89B006460D4600F0498221D81E
:10406000022C52D003D8012C3DD0062454E0032C5E
:104070003DD0052CF9D10DF115008DF8144007F055
:1040800095FDAE4A002313609DF8153003F01F0321
:104090009346032B00F2C981DFE813F04200770159
:1040A000BE0119010D2C00F0108211D80B2C00F06C
:1040B00001820C2CD9D1A24B1B78012B04D0A14931
:1040C00040F22C4000F01CFE0020FFF753FF1CE0E4
:1040D0000E2C00F00282852CC7D1994B1B78032B44
:1040E000C3D1042000E00320FFF744FFBDE796485A
:1040F00000F0EDFE30B1954B01221A60BFF36F8FD7
:10410000BFF34F8F8E4B1C780CB1002404E08D4917
:1041100040F2124000F0F4FD204609B0BDE8F08FF7
:1041200026B988494FF44E7000F0EAFD9DF815302D
:10413000C3F34115002D40F0CA80DB099DF816102D
:1041400000F0B680062918D0082900F0A4800029C4
:1041500040F0BD807E4C022220463CF05CFD23787E
:1041600043F0010222707B4A1278950744BF43F066
:1041700003032370022276490FE09DF81830022BCA
:1041800011D0032B79D0012B40F0A180BDF81B305A
:10419000002B00F0B080704912220DF11500FFF7DE
:1041A00025FF044639E0BDF81B70002F00F0A38006
:1041B000092F28BF0927FEF781FDDFF888A10446F3
:1041C0004FF0090874BB624C64493A4620463CF003
:1041D000FEFC2571A4F80280FEF756FD18B1E379C4
:1041E00043F02003E371FEF769FD5D4BC3E9000472
:1041F0009F60BDF81B20DA60002000F03FFA5949AB
:104200008020FEF7D1FD044620B957498020FFF7F2
:10421000DBFE0446002000F041FA062C57D0002CAB
:1042200069D060E0636823B9514640F2A12000F0F4
:1042300067FD63685B6823B9514640F2A22000F035
:104240005FFD0DF12009002649F8146D01966368A1
:104250005B6800221E46214601234846B047019B69
:1042600040B99844237A20461D44FFF7EBFDEDB298
:104270000446A7E701330193E9E7BDF81B30002BA3
:1042800039D0BDF819109DF8170000F0C3F90146A8
:10429000E8B1027881E72A4A1278052A03D12C4A2C
:1042A0001370012267E7042A11D1294B1D70F8E72A
:1042B000013908290BD8DFE801F02C0A0E0A050A9B
:1042C0000A0A39001F494FF4577000F019FD05A87C
:1042D000FEF742FD9EE0BDF81730012BF7D1FEF747
:1042E000D3FC18B90F2407F0CAFC15E7194A137854
:1042F00043F002031370DBF80040002C00F0208133
:1043000007F0C0FC044600287FF4FFAE07F074FC01
:1043100002E7BDF81730012BD9D1FEF7B5FC002814
:10432000E0D00C4A137823F00203E3E7044B1B7838
:10433000043B012B1AD90824D5E700BF281100201F
:104340000811002006410400301100205C7002407A
:104350003411002024110020DC400400BD40040082
:104360000C11002048410400F04004009DF8173073
:104370002BB9FEF7A3FD0420FFF7FCFDBBE7012BE3
:1043800041D1FEF77BFD0520F6E703A99DF8190052
:10439000FEF79AFC064608B91024A4E705AA9DF882
:1043A0000C10FEF7B3FC062804467FF438AF9DF8E6
:1043B000152012F0600F96D1644B9DF80C10187800
:1043C0009DF81630D50915D073B10A2B8BD105286D
:1043D000B1D13046FEF74CFD5D492A4608700DF11B
:1043E0001500FFF703FE15E00528A4D158490B80FE
:1043F0000222F4E70B2B7FF476AF05289BD1BDF8A2
:104400001730FF2B01D907246DE79DF817203046A0
:10441000FEF7DEFC044602E79DF81900040706D10A
:104420009DF8153013F0600F09D006245BE705A94D
:10443000FEF76FFC062804467FF4F1AEF0E79DF826
:104440001620424B9DF819401B78012A1ED012D32A
:10445000032AEAD104F00F02072AE6D8BDF81710A4
:104460000029E2D1052B02D0002A7FF464AF204658
:1044700007F03CFB3FE7052B02D021077FF45BAF41
:10448000204607F051FB32490880B1E704F00F02E3
:10449000072ACAD8BDF817100029C6D1052B02D0AB
:1044A000002A7FF448AF204607F05CFB204607F067
:1044B000F1FE20E7254B1B78002B3FF426AE254963
:1044C00040F2264000F01CFC1FE64FF08043D3F87A
:1044D0003834DA070AD50220F7E51C4B1B78012B8C
:1044E00004D81C494FF4886000F00AFC0120ECE578
:1044F000CB78032B3FF410AE8B785B0604D01549C4
:1045000040F24F4000F0FCFB134EE8783368D3B123
:104510000022326071689847044600287FF4E3AEB9
:10452000336823B1AB78002B7FF4EFADEEE60B4B95
:104530001B68082B04D10A4B1B68002B3FF4E5AD28
:1045400007F09AFBE8E50E24CDE600BF0811002035
:104550003411002006410400281100203001001011
:104560003401001008B1402303600148704700BFC8
:104570003411002070B54FF0805286B0D2F8A830C8
:10458000D2F8A42000926FEA83436FEA934302AD0E
:104590009BB2094A094E0D2128463CF0C3FF002476
:1045A00028463DF081F8844201D306B070BD2B5DF2
:1045B000A3550134F4E700BF50410400F468002023
:1045C000F8B5124B53F820502B7813B9AE1C304677
:1045D000F8BD0020FFF7C6FF0D4F0646013D002342
:1045E00015F8012F5C1C2AB96400E4B244F440744D
:1045F0003480ECE71E2B03D93946C02000F080FB45
:10460000E3B22A7826F81320EAE700BFEC41040061
:10461000A641040008B9FFF7D3BF052807D8054A0B
:10462000105C20B1044B53F82030002BF3D1002054
:10463000704700BF04420400EC41040072B6024A15
:10464000136801331360704774110020034A136824
:10465000013B136003B962B6704700BF74110020BC
:10466000EFF30583C3F308032BB9EFF31480C043C2
:1046700000F00100704701207047000008B5FFF707
:10468000EFFF012803D004491D2000F039FBBDE8ED
:104690000840FFF7D3BF00BF0A42040008B5FFF788
:1046A000DFFF012803D004492B2000F029FBBDE8DF
:1046B0000840FFF7CBBF00BF0A420400EFF30583B9
:1046C000C3F308038BB1103B5AB2002AADBF02F10D
:1046D000604303F00F03064A03F56143B4BFD05CA7
:1046E00093F800034009C0B270470F20704700BF25
:1046F00014ED00E038B50D46044618B905498D2083
:1047000000F0FEFA2368C3F848532368C3F808533F
:1047100038BD00BFDA42040070B50D4616460446A7
:1047200018B90649832000F0EBFA2368C3F8445314
:1047300016B12368C3F8045370BD00BFDA42040009
:1047400037B50C46054618B90749942000F0D8FA49
:104750002B68185928B100221A511B590193019B4B
:10476000012003B030BD00BFDA4204002DE9F84358
:104770000E461446054618B938492F2000F0C0FAF5
:104780001EB93649302000F0BBFA1CB9334931203C
:1047900000F0B6FA6B79324A324F42F8234007EB09
:1047A000C303DFF8E4801B7983B1B8F80230012B32
:1047B00009D92D482D4B2E49C01AC008000440F0DD
:1047C0000200FCF737FC0820BDE8F8833488D5F8F0
:1047D0000090B4F5805F04D326494FF4AB7000F02D
:1047E0008FFAC9F80845B67895F90440072E03D921
:1047F0002149452000F084FA002CB8BF1F4B204906
:10480000ACBF04F1604404F00F044FEA4616F6B260
:10481000AABF04F561441E5584F8006395F904307D
:104820000122580903F01F0302FA03F341F8203074
:104830006B7907EBC30147F83350B8F802300A71BF
:10484000022B09D90848094B0E49C01AC0080004B8
:1048500040F00300FCF7EEFB0020B5E7DA4204006D
:10486000801100207811002020A20400D0A10400B3
:1048700056420400784204009F42040014ED00E018
:1048800000E100E0C84204000806002010B504461C
:1048900018B90449612000F033FA236801221A6034
:1048A00010BD00BFDA42040010B5044618B904492F
:1048B000672000F025FA236801225A6010BD00BF6E
:1048C000DA420400F7B50D4616461F46044618B9ED
:1048D0001349702000F014FA23684FF48030A84088
:1048E000C3F808032368A900C3F8480301F5A071C1
:1048F00026F07F4289B226680023735073580193D3
:10490000019B236805F5A87543F825202368C3F8A3
:10491000440317B12368C3F8040303B0F0BD00BF1C
:10492000DA4204002DE9F3478946144698460646C4
:1049300018B93849A72000F0E3F94FF4803707FA97
:1049400009F739463046FFF7D5FE32684FEA890548
:10495000D2F804152A4405F5A075D2F84035C2F8FE
:104960004015ADB232684FF0000A42F805A05B1A5C
:104970005259009223F07F43012B24F07F44009A88
:104980000BD1254B4FF4806043F001039847336807
:1049900043F805A05B590193019B3368D3F8045594
:1049A000621B22F07F42012A09F5A87918D101344F
:1049B00043F82940184B4FF4806043F001039847B7
:1049C0003368D3F804359D4208D130460122394678
:1049D000FFF7A2FE002002B0BDE8F0870D20FAE745
:1049E00043F829403168D1F80435621ED21AC8F163
:1049F000FF1822F07F4208F57F489045EED3002A49
:104A0000E3D1013441F829403268D2F804259342B9
:104A1000DAE700BFDA420400504204000A460221ED
:104A2000FFF77ABE4FF48271FFF78ABE4FF48033EE
:104A300003FA01F1FFF75EBE890001F5A07189B2AA
:104A4000FFF77EBE0368D3F80405704790F9043081
:104A500001215A0903F01F0301FA03F3403202490E
:104A600041F82230704700BF00E100E0024B034AEA
:104A70001B681068184700BF8011002078110020C3
:104A800038B50B0704460FD53CF072F8651C435D42
:104A900003F00303012B07D13CF06AF8435D03F0F8
:104AA0000303012B08BF2034204638BD2DE9F04F09
:104AB00087B08A4614460293064618B9012007B00B
:104AC000BDE8F08F0029F9D0029B002B00F0138184
:104AD00002F004030D46049321463078FFF7D0FF1F
:104AE000C7B23F2F06F1010823D00BDCD7B12A2F24
:104AF00038D021462878FFF7C3FF874205F1010629
:104B00001FD0DBE75B2F7DD05C2FF2D1E307F0D421
:104B100021467078FFF7B4FFC7B2002FE9D006F145
:104B20000208E6E7E106287839D52F2837D100209A
:104B3000C5E72B78002BC1D02F2B05D1A207BDD400
:104B40006E1C35464646C7E72E2BF9D1049B002B39
:104B5000F6D05545B2D0A307F2D515F8013C2F2B5E
:104B6000EED1ABE770782146FFF78AFFC1B22A2960
:104B700019D02B782E2B09D1049B3BB155459DD0E4
:104B8000A70703D515F8013C2F2B97D079B9A607B5
:104B9000CDD5E406CBD42F2128463CF066FD00306D
:104BA00018BF01208BE7214618F8010FDCE72F29F9
:104BB0001FD0029B24F004095F1E04F0020AAB46DA
:104BC00021469BF80000FFF75BFFC6B20135002EBF
:104BD0003FF474AF3B464A4659464046FFF766FFEE
:104BE00001287FF46CAF2F2EE9D1BAF1000FE6D087
:104BF00064E7A007DDD528463CF037FD06460028CF
:104C00009FD15BE7287800283FF458AF2F2802D1C6
:104C1000A1073FF553AF2146FFF732FF8346B8F1B6
:104C2000000F3FF44BAF7378212B01D05E2B25D1C1
:104C3000023601230122019304EA02034FF0000926
:104C40000393214630780592FFF71AFFC3B25D2B1C
:104C500006F10107059A14D112BB019B4B453FF4A5
:104C60002DAF002F3FF42AAF7A1C04D12B785B2B99
:104C70007FF424AF47466E1CB84662E746460023E1
:104C8000D8E72F2BF2D05C2B07D1039A42B92146EB
:104C90007078FFF7F5FEB71CC3B2002B3FF40EAFE0
:104CA0003A782D2A21D1214678780593FFF7E8FE3E
:104CB000C0B2059BC8B15D2817D05C2807F1020679
:104CC0000BD1039A4AB92146B878FFF7D9FEC0B292
:104CD00000283FF4F3AE059BFE1C9B4503DB834598
:104CE000D8BF4FF001090022ABE73E469B4508BF05
:104CF0004FF00109F7E70320E1E64023FFF7D6BEB6
:104D000007B5ADF8000001916A46002144F20200A7
:104D1000FCF70DFE03B05DF804FB10B561B1B2FB0A
:104D2000F3F403FB1424A4B244B9C0E90014846072
:104D30008281C381204610BD0E20FCE70920FAE7DE
:104D400037B550E8013F9DB2C48925448489A54206
:104D500028BF2D1B0489A54202BFBFF32F8F00225D
:104D600007E0C5EA030540E80154002CE9D14FF003
:104D700001028DF803200193019B9DF803200B6035
:104D800002F0FF0322B10B880068184403B030BD65
:104D90001846FBE70A884B889A4209D150E8012F50
:104DA000C2EA024240E80123002BF7D101207047FC
:104DB0000020704737B550E8023F1FFAA3F5C488BA
:104DC000A54202BFBFF32F8F00220DE0C489254406
:104DD0008489A54228BF2D1BC3EA054540E802543B
:104DE000002CE8D14FF001028DF803200193019BC4
:104DF0009DF803200B6002F0FF0322B14B8800688E
:104E0000184403B030BD1846FBE70A884B889A4225
:104E100009D150E8022FC2EA224240E80223002BC7
:104E2000F7D1012070470020704750E8002F0B4653
:104E300040E8003C9CF0000FF7D11046704750E866
:104E4000002F42EA010340E8003C9CF0000FF6D13D
:104E50001046704750E8003F43EA010240E8002C4A
:104E60009CF0000FF6D11046704750E8002F02EA80
:104E7000010340E8003C9CF0000FF6D1104670475B
:104E800050E8003F03EA010240E8002C9CF0000FCC
:104E9000F6D11046704750E8003F03EB010240E8AE
:104EA000002C9CF0000FF6D11046704750E8003FF0
:104EB000A3EB010240E8002C9CF0000FF6D1104655
:104EC00070470121FFF7BBBF0121FFF7C3BF0021DE
:104ED000FFF7CBBF0021FFF7D3BF00002DE9F04360
:104EE0008368D3F85463C6F3400689B0074636B1E9
:104EF0000022114609B0BDE8F04302F011B80129C3
:104F000006D91E4A022109B0BDE8F04300F010BEE8
:104F10001B4C1C4DDFF870901C23E2182D1B4FF02A
:104F20006408B5FBF3F503FB05251C34AC4202D144
:104F300009B0BDE8F08354F81C0C54E9062301794C
:104F400000689A1A1B1ADBB2039308FB03F3B3FB46
:104F5000F2F3CDE9016334F8043C0093CDE9061285
:104F600054F8083C11FB08F13846B1FBF2F1CDE9E9
:104F700004214A46082100F0DBFDD6E78643040001
:104F800038A304008CA304009943040010B5044620
:104F9000002830D003681BB91849D920FFF7B0FEAC
:104FA00063681BB91549DA20FFF7AAFEA3681BB98D
:104FB0001249DB20FFF7A4FEE3681BB90F49DC2090
:104FC000FFF79EFE238B1BB90C49DD20FFF798FEEF
:104FD000D4E9012321689B1ADBB20A60013BDBB2F2
:104FE000FF2B226802D10020107110BD1168481CEF
:104FF00010600B70F2E70E20F7E700BF4843040093
:1050000038B5044618B91249FE20FFF779FE002092
:10501000FFF734FB2268616813688B4215D9591E6B
:10502000116013F8015C228BE36802FB05352268EE
:10503000A36811685B1A1179DBB2994200D213712F
:105040000020FFF72BFB284638BD0025F8E700BFFE
:105050004843040038B50C46054620B90E4940F2D5
:105060002110FFF74DFE24B90B494FF49170FFF763
:1050700047FE0020FFF702FB2A681368591C1160E5
:10508000EA68A41A2A8BB4FBF2F41C700020BDE875
:105090003840FFF703BB00BF4843040010B5436826
:1050A0009C686068036801219B689847A36810B9F1
:1050B00003221A7010BD0422FBE7000038B5054634
:1050C0000C4621B9064940F60920FFF719FE35B113
:1050D000A268B2F8543343F02003A2F8543338BD29
:1050E000AE44040038B50D46044620B9084940F6E0
:1050F000FD10FFF705FE25B9054940F6FE10FFF744
:10510000FFFD29682068BDE838403CF0BBBA00BF0D
:10511000AE4404002DE9F047089C1E4609BB1B4F16
:105120001B4CE41BE4089442B94606D91948E50033
:1051300000EB82080C46A54201D100230EE009EBEA
:105140000403D8F800005B6819683CF09BFA07EB91
:10515000040A08340028EED1DAF804303360BDE8E0
:10516000F0870028E9D00178436839B1214610461C
:1051700098472368002BE0D03460F0E712019918BB
:105180009B58002BD9D03160E9E700BF58A104003B
:10519000D0A10400A405002010B5044620B9094997
:1051A0004FF4DA70FFF7ACFD236923B905494FF4DA
:1051B000DA70FFF7A5FD2069034A0449BDE81040F5
:1051C00002F0B8BCAE440400F0440400804804007F
:1051D00010B5044620B909494FF4D770FFF790FD88
:1051E000236923B905494FF4D770FFF789FD20697A
:1051F000034A0449BDE8104002F09CBCAE440400E0
:10520000EC4404008048040010B5044620B9094964
:105210004FF4DD70FFF774FD236923B905494FF49E
:10522000DD70FFF76DFD2069034A0449BDE81040B9
:1052300002F080BCAE440400F34404008048040043
:1052400008B13CF031BA704710B50446FFF7F8FFDB
:1052500023462044834201D1002010BD13F8012BC6
:105260003F2A01D02A2AF5D10120F6E738B50546B4
:10527000836800681C8DFFF7E3FFAB68DA8B20447E
:10528000B0FBF2F302FB1300B0FA80F0400938BD26
:1052900010B584680068FFF7D3FF238DE28B84F894
:1052A0002000C0B2034493FBF2F102FB113301333F
:1052B000A382E38C01311844218390FBF2F3591C43
:1052C00002FB130301336183E38204F1140010BD78
:1052D00038B5054683680068DC8CFFF7B1FFAB6822
:1052E000DA8B2044B0FBF2F302FB1300B0FA80F03B
:1052F000400938BD30B50368D3F84C5385B0044637
:10530000EDB100230A2201A9284603F0CFF8236853
:10531000029AC3F84C2300210A2201A83BF07BFC2F
:1053200000230A2201A9284603F0AAF8284603F020
:105330004FF82368D3F84C0318B9C3F8480305B0F5
:1053400030BD01A900230A2203F0B0F82068002331
:105350000A2201A9D0F84C03019303F091F8EEE77B
:1053600007B58368C9B193F822208A4212D00D4A4A
:10537000009233228DF8042001F12F028DF80520D0
:105380006D22ADF8062083F822106A4606490069AE
:1053900002F0D0FB03B05DF804FB83F82210034A4F
:1053A000F4E700BF1B5B313B80480400F644040077
:1053B00007B5836893F823208A4214D045F61B3240
:1053C000ADF8002034228DF8022001F12F0283F87D
:1053D00023108DF803206D22ADF8042003490069E5
:1053E0006A4602F0A7FB03B05DF804FB80480400A6
:1053F000014902F09FBB00BF954804000A460068BF
:10540000014902F097BB00BF2045040009B1FFF736
:10541000F5BF70472DE9F84F00250746884614462A
:105420000560267866B13BF0A3FB3044437813F067
:10543000080314D00023237001343B680B2BF0D9F0
:105440003B680C2B04D9594940F20450FFF758FC33
:105450003B68002248F823202846BDE8F88F3A68C8
:10546000511C396048F822401D4694F80090B9F16B
:10547000000FE2D0002D40F08A80B9F1270F05D04F
:10548000B9F15C0F0ED0B9F1220F79D12046FFF7A8
:10549000D7FE611C024620463BF0A4FB4D46264643
:1054A0003446E2E7661C2046FFF7CAFE3146024654
:1054B00020463BF097FBF3E7B9F15C0F01D0661C87
:1054C000EEE760788542EED0302825D102234FF0F8
:1054D0000009E05CA0F13001C9B207295FFA83FA44
:1054E00017D8013341EAC901052B5FFA81F9F0D1E0
:1054F0009A462046FFF7A4FE0AF1FF3BA344821C14
:10550000A2EB0A02594620463BF06CFB84F800905F
:10551000C6E7BAF1020FECD17828D0D102214FF0C2
:105520000009635CA3F13002D2B2092AC8B214D8D0
:1055300042EA091303295FFA83F90CD14FF0040BF7
:105540002046FFF77DFE0BF1FF3AA244821CA2EB3E
:105550000B025146D7E70321E3E7A3F16102052AD5
:1055600003D8573B43EA0913E4E7A3F14102052AB4
:1055700001D8373BF6E70228A1D04FF0030BDFE755
:105580003BF0F6FA484443781B0798D555E7A94500
:1055900004F1010690D12046FFF752FE3146024643
:1055A00020463BF01FFB002579E700BFAE44040016
:1055B00070B50D461646044618B90A49FD20FFF796
:1055C0009FFB63681BB90749FE20FFF799FB6068E2
:1055D00003681C6929463346A4460122BDE8704091
:1055E000604700BFAE440400F7B505468068454FEC
:1055F00000244FF4C072214600F5D6708DF80340A8
:105600003BF009FB4049286902F094FA286902F04E
:105610007FFA4FF47A7647F0010701AA0DF10301F2
:105620002846FFF7C5FF019B5BB94FF6C010B8478E
:10563000019B002BF1D1013EB6B2002EEDD10D2021
:105640003AE09DF80320AB681B2A4ED093F8AC11CA
:105650001B29EDD1522A48D11C44002284F8AC21E8
:10566000AC6894F8AD315B2B23D104F5D7710223DC
:10567000164611F8012B01333B2A9BB21ED1B3F51C
:10568000C07F24D003F2AB102044002210F8011F89
:10569000F9B9FA2A86BFFA23A382A282AB68FA2E4E
:1056A00086BFFA221A831E83AB68002083F8AC0100
:1056B00002E084F8AC210B2003B0F0BD06EB8606B7
:1056C00002EB4602303AB3F5C07F96B2D1D10C203E
:1056D000F2E7013302EB82029BB2303901EB420266
:1056E000B3F5C07F92B2D1D3F1E723440134A4B221
:1056F000092C83F8AC219BD9AB68002283F8AC213C
:105700000420D9E7304504000B4504002DE9F74398
:105710000F461446054600B119B91D49CE20FFF7C2
:10572000EFFA6B681B681BB91949CF20FFF7E8FA3D
:10573000DFF85C80002614B903B0BDE8F083686828
:1057400003682246D3F80C90B91901ABC84718B1C9
:105750004146D920FFF7D4FA019B9C4203D241462F
:10576000DA20FFF7CDFA019B1E44E41A002BE2D1A8
:10577000AB681A78032ADED0D3F854239206FBD5FF
:10578000B3F854236FF34512A3F85423D3E700BFB3
:10579000AE4404002DE9F74F054617460E46002992
:1057A00075D00C463BF0E4F9A4EB060A14F8013B73
:1057B000184443781A07F5D41FFA87F905F1100841
:1057C0003046FFF73DFDAB68DB8BA0EB0A00DB1B2F
:1057D00098424FF0000406EB0A0B15D901933BF0F9
:1057E000C7F91BF80420019B1044417811F0080F01
:1057F00002D00A2A2FD02346A968C98B3A198A42B7
:1058000028D20134EAE70134A04218D01BF8043052
:105810000A2B0AEB0408F6D1286902F079F922462E
:105820002C4659462846FFF771FF54F8100FFFF732
:10583000DFFDB9B2204608F1010AFFF7E7FD28694C
:1058400006EB0A0102F076F9286903B0BDE8F04FD3
:10585000FFF7CEBD1C46286902F05AF92246594688
:105860002846FFF753FF544434443BF081F9A4EB3E
:10587000060A14F8013B184443781B07F5D428693D
:10588000FFF7B6FD49464046FFF7C0FD98E703B075
:10589000BDE8F08F0A4619B10249006802F04AB922
:1058A000704700BF1A4504000A4619B10249006852
:1058B00002F040B9704700BF2645040070B50546A8
:1058C000FFF7E6FC037B0288818801339A42044695
:1058D00001D1012915D0012905F1100604D901399A
:1058E00089B23046FFF7E0FF2388217B8B4209D93C
:1058F000013B591A89B23046FFF7CCFFAB68002252
:105900001A8570BDC91A013189B23046FFF77EFD94
:10591000F4E7F8B50546FFF7BBFC04468788C68860
:105920002846FFF7A3FC78B12869FFF761FDB7426D
:1059300005F110050ED161882388C91A284689B25D
:10594000BDE8F840FFF7A6BF2846FFF7C1FC0028D6
:10595000EAD1ECE7A388E188C91A89B22846FFF7A3
:10596000A3FF238861888B42E7D9591A284689B258
:10597000BDE8F840FFF74ABD38B50546FFF788FC9B
:10598000028843889A4204468388C28801D19342A0
:1059900014D09A4205D9D21A92B20B49286902F062
:1059A000C9F8238861888B4205F1100007D9591A7C
:1059B00089B2FFF76FFFAB68DA8C1A8538BDC91A58
:1059C00089B2FFF723FDF6E7144504002DE9F74FF0
:1059D0000F4616460193044648B94E4940F67C20CE
:1059E000FFF78EF94B4940F61F20FFF789F9A368AE
:1059F0001BB163680BB1236823B946494FF4226099
:105A0000FFF77EF9E368444A5B689C60606803685E
:105A100039461D682346A847054600285BD16369BF
:105A200023B93C4940F62F20FFF76AF9606902F07C
:105A3000CDFC054600284ED1A368DFF8EC90C3F8F2
:105A40004803A368354FC3F84C034FF45672014620
:105A5000A068DFF8C080DFF8CCB03BF0DCF8A268CB
:105A6000B2F8543343F02003A2F85433A368B3F8D8
:105A7000542366F38202A3F85423A268B2F8543385
:105A800043F00803A2F85433A36801221A70A368F4
:105A90005022DA83A3681822A7EB09079A834FEAFA
:105AA000D70A2E4656451AD1072F05D91C4B1D483B
:105AB000042231463BF0B6FB019B63B19DF83010E8
:105AC000E068FBF761FB0028A1BFE368DB68012207
:105AD0005A71B8BF0425284603B0BDE8F08FB9F16C